:1000000017C1000046C1000044C1000042C1000009
:1000100040C100003EC100003CC100003AC10000E8
:1000200038C1000036C1000034C1000032C10000F8
:1000300030C100000C94110E2CC100002AC1000038
:1000400028C1000026C1000024C1000022C1000018
:1000500020C100001EC100001CC100000C94F70963
:1000600018C100000C942A0F0C94010F12C100005B
:1000700010C100000EC100000CC100000AC1000048
:1000800008C1000006C1000004C1000002C1000058
:100090000C94D80E0C94AF0EFCC00000FAC0000007
:1000A000F8C00000F6C00000F4C00000F2C000007C
:1000B000F0C00000EEC00000ECC00000EAC000008C
:1000C000E8C00000E6C00000E4C00000E2C000009C
:1000D000E0C00000DEC00000DCC00000DAC00000AC
:1000E000D8C00000A909AC099B099F09A309E3092D
:1000F000B009B409BA09BE09C209C809CC09D009B6
:10010000E309D609DA09DE0905A84CCDB2D44EB907
:100110003836A9020C50B9918688083CA6AAAA2AAA
:10012000BE000000803F00000A0B02090C0D0E0803
:1001300007030401000000000000000000000000B0
:1001400000000000000000000000000000000000AF
:10015000000012111000000000000000000000006C
:10016000000000000000000000000000020000226B
:1001700000250028002B002E003100340002010071
:1001800000050108010B0100002100240027002ABE
:10019000002D003000330001010000040107010AB6
:1001A0000105050505070508080808020202020AFC
:1001B0000A0808040404040101010101010101030A
:1001C00003030303030303040707070C0C0C0C0CC5
:1001D0000C0C0C0202020206060606060606060BB8
:1001E0000B0B0B0B0B0B0B0102102020080810202F
:1001F00040102040800201020108040201010204B3
:100200000810204080804020100804020180040271
:1002100001804020100804020108040201010204C8
:100220000810204080010204081020408000530F75
:1002300011241FBECFEFD1E2DEBFCDBF00E00CBF67
:1002400012E0A0E0B2E0E6E3FCE200E00BBF02C097
:1002500007900D92AC3BB107D9F724E0ACEBB2E0CC
:1002600001C01D92A137B207E1F711E0C8E1D1E06A
:1002700000E006C021970109802FFE010E94DB10DB
:10028000C731D10780E00807A9F70E9403100C943A
:100290001916B6CE3FB7F8948091E0029091E10232
:1002A000A091E202B091E30226B5A89B05C02F3FC2
:1002B00019F00196A11DB11D3FBFBA2FA92F982F8C
:1002C0008827820F911DA11DB11DBC01CD0142E007
:1002D000660F771F881F991F4A95D1F70895FC0173
:1002E0008081823079F018F4813031F008958330C4
:1002F00079F0843099F0089570E0709389006093EC
:100300008800089570E070939D0060939C000895AC
:1003100070E07093A9006093A800089570E0709356
:100320009900609398000895FC0184819581089557
:10033000FC01828193810895FC0122853385621737
:1003400073073CF0848595859B01861797070CF40D
:100350009C01358324830895FC012681378162172F
:1003600073073CF0808591859B01861797070CF4F5
:100370009C01338322830895FC0184819581089533
:100380000E9480140F931F93CF93DF938C01EB0196
:10039000FC017583648302961C161D065CF59FDFC5
:1003A000F8018281823079F030F4813009F054C054
:1003B00023E032E00DC0833049F0843009F04CC0B6
:1003C00026E030E005C024E031E002C027E035E05F
:1003D00081E090E0AC0101C0440F3A95EAF7342F78
:1003E00030954091EF02342301C0880F2A95EAF737
:1003F000832B2AC0619573DFCD2B71F1F8018281C7
:10040000823069F028F4813039F533E022E00CC005
:10041000833041F0843001F536E020E005C034E05F
:1004200021E002C037E025E081E090E0AC0101C0AE
:10043000440F3A95EAF7409501C0880F2A95EAF7EC
:100440009091EF02892B84238093EF02DF91CF916B
:100450001F910F910C94210CDF91CF911F910F915F
:1004600008952F923F924F925F926F927F928F9258
:100470009F92AF92BF92CF92DF92EF92FF920F9333
:100480001F93CF93DF93CDB7DEB7E0970FB6F89405
:10049000DEBF0FBECDBF7C01DC01ED91FC91019070
:1004A000F081E02DBC01CE014996199563E472E01C
:1004B000CE0101960E94FD0DBE016F5F7F4FCE0100
:1004C00049960E943F0D182FCE0101960E94F90D0A
:1004D000112309F4E1C2F701228033809101245FE6
:1004E0003F4F3EA32DA3A101445E5F4F5EA74DA7E2
:1004F000ADA1BEA1ED91FD91BEA3ADA3FAA7E9A761
:10050000D1015C968D919C915D97209100022813FA
:1005100004C0ECE6F1E0149101C12F3F09F08FC255
:1005200080930002ECE6F1E014911F3F09F487C2CA
:10053000123009F47EC06CF5112309F459C0113052
:1005400009F0ECC01092800010928100209181008F
:1005500028602093810020918100216020938100F8
:100560009C013327F901EF55FE4FE491F0E0EE0FC7
:10057000FF1FE359FE4F459154915093C70240939A
:10058000C602F901E951FE4FE491E093C50211E082
:10059000C7C0143009F49BC00CF472C0153009F0C8
:1005A000BDC01092200110922101209121012860EC
:1005B00020932101209121012160209321019C01A0
:1005C0003327F901EF55FE4FE491F0E0EE0FFF1FE6
:1005D000E359FE4F459154915093BE024093BD02A2
:1005E000F901E951FE4FE491E093BC0215E098C097
:1005F00014BC15BC24B5226024BD25B5216025BDE1
:100600009C013327F901EF55FE4FE491F0E0EE0F26
:10061000FF1FE359FE4F459154915093CA024093F6
:10062000C902F901E951FE4FE491E093C80210E0DC
:1006300077C01092B0001092B1002091B0002260FB
:100640002093B0002091B10021602093B1009C0163
:100650003327F901EF55FE4FE491F0E0EE0FFF1F55
:10066000E359FE4F459154915093E5024093E402C3
:10067000F901E951FE4FE491E093E60212E050C027
:100680001092900010929100209191002860209388
:100690009100209191002160209391009C013327CB
:1006A000F901EF55FE4FE491F0E0EE0FFF1FE35923
:1006B000FE4F459154915093C4024093C302F901F7
:1006C000E951FE4FE491E093C20213E029C0109279
:1006D000A0001092A1002091A10028602093A10009
:1006E0002091A10021602093A1009C013327F901F2
:1006F000EF55FE4FE491F0E0EE0FFF1FE359FE4F80
:10070000459154915093C1024093C002F901E951BF
:10071000FE4FE491E093BF0214E002C017FD8FC1C9
:100720000E94480C29A53AA54901A12CB12C812F82
:100730008D7F09F0B6C060E072E18AE790E0A50124
:1007400094010E94BF1029013A0169017A0131E048
:10075000C31AD108E108F1084FEFC416D104E1042F
:10076000F10409F008F44BC060E472E48FE090E01B
:10077000A50194010E94BF1069017A0181E0C81AA5
:10078000D108E108F108123001F59FEFC916D10434
:10079000E104F10409F008F468C560E970ED83E054
:1007A00090E0A50194010E94BF1069017A01A1E0C7
:1007B000CA1AD108E108F108BFEFCB16D104E10451
:1007C000F10409F0C0F583E065C0EFEFCE16D10467
:1007D000E104F104B1F0A8F068E478EE81E090E083
:1007E000A50194010E94BF1069017A01F1E0CF1ABE
:1007F000D108E108F108112309F4E1C42DC581E015
:1008000001C082E0112391F045C0D301C2012AE06A
:10081000B595A795979587952A95D1F76C017D0198
:1008200021E0C21AD108E108F10885E095B5987F6A
:10083000892B85BD80C068E478EE81E090E0A50159
:1008400094010E94BF1069017A01F1E0CF1AD1082A
:10085000E108F1082FEFC216D104E104F10409F018
:1008600008F4ABC464E274EF80E090E0A501940169
:100870000E94BF1069017A0181E0C81AD108E1081D
:10088000F1089FEFC916D104E104F10411F008F05A
:10089000B7C485E09091B100987F892B8093B10017
:1008A0004AC060E072E18AE790E0A50194010E94ED
:1008B000BF1069017A01F1E0CF1AD108E108F1080F
:1008C000C114D10421E0E206F10488F068E478EE76
:1008D00081E090E0A50194010E94BF1069017A01B6
:1008E00081E0C81AD108E108F10883E001C081E085
:1008F000113039F490918100987F892B8093810089
:100900001AC0133039F490919100987F892B80930D
:10091000910011C0143039F49091A100987F892B77
:100920008093A10008C0153031F490912101987F87
:10093000892B8093210129A53AA5220F331FA4EF0B
:10094000B1E00E940A1628EE33E040E050E00E9439
:100950009D10123009F440C0BCF4112371F1113024
:1009600009F06DC0D0928900C09288002093D70210
:100970003093D8024093D9025093DA0280916F00ED
:10098000826080936F005BC0143009F447C0A4F10B
:10099000153009F054C0D0922901C092280120934B
:1009A000CB023093CC024093CD025093CE02809183
:1009B000730082608093730042C0C7BC2093DB0247
:1009C0003093DC024093DD025093DE0280916E0092
:1009D000826080936E0033C0C092B3002093E70220
:1009E0003093E8024093E9025093EA02809170004C
:1009F00082608093700023C0D0929900C0929800CA
:100A00002093D3023093D4024093D5025093D60260
:100A10008091710082608093710011C0D092A90012
:100A2000C092A8002093CF023093D0024093D1020D
:100A30005093D202809172008260809372002ADC0F
:100A40004B015C0154E6C52ED12CE12CF12C22DCAB
:100A5000DC01CB0188199909AA09BB09883E93409A
:100A6000A105B10558F091E0C91AD108E108F108D3
:100A7000A8EE8A0EA3E09A1EA11CB11CC114D104D9
:100A8000E104F10421F72DA13EA14DA55EA5241797
:100A9000350709F02DCD66C362E572E0CE010196FF
:100AA0000E94FD0DBE016F5F7F4FCE014996E7D7D3
:100AB000182FCE0101960E94F90D112309F452C39B
:100AC00018A21F8E1AA219A21CA21BA2698D7A8DD0
:100AD0006115710531F04D8D5E8DCE014F960E94EE
:100AE000B20DCE0101965C016E0193E1C90ED11CDD
:100AF000850168E972E0C8010E94FD0D0A5F1F4F81
:100B00000C151D05B1F78BA19CA1892B69F08F8C69
:100B100098A06AE370E0C4010E948D14009721F050
:100B20008C010819190902C00FEF1FEF6FEF7FEF5B
:100B30000F3FEFEF1E0709F480C0AC14BD0409F4A9
:100B40007CC028014B01AFEF8A1A9A0A08151905D3
:100B500010F42401480168E972E0C6010E94FD0D0D
:100B60008BA19CA188169906B8F4320184159505CD
:100B700008F43C01EF8DF8A1E60DF71D50801082BE
:100B80006F8D78A1680D791DC6010E94DA0DEF8D79
:100B9000F8A1E60DF71D5082F50180819181009743
:100BA000B1F06B897C896115710579F042815381BF
:100BB0002F89388D4217530740F00E94A1148F8966
:100BC000988DF5019583848318C00E9404138B8946
:100BD0009C89D50111969C938E938D899E8913963D
:100BE0009C938E9312978F89988D15969C938E93D4
:100BF00014971C8A1B8A1E8A1D8A188E1F8AC6019A
:100C0000F8D7C80101962BA13CA18217930768F47D
:100C10008F8C98A06AE370E0880D991D0E948D1456
:100C2000009719F08819990902C08FEF9FEFB6E07D
:100C3000AB0EB11CB8018C017BCF8D819E81892BBD
:100C400021F109811A8169E572E0C8010E949814B6
:100C5000892B39F4CE01079608D787010C5F1F4F07
:100C60000DC061E672E0C8010E949814892B69F4F6
:100C7000CE010796FAD687010E5E1F4FC8016CDBC6
:100C8000CE010D96F2D6C80157DBD70116966D91AD
:100C90007C91179767597D4FC601AFD7F7016085E3
:100CA000718569587D4FC6012AD7D70154966D9139
:100CB0007C91559765587D4FC6017CD7F7016689B1
:100CC000778969587D4FC6011AD7C60192D7CE01E0
:100CD0000D968FD7CE0107968CD7CE01019689D776
:100CE000CE014F9686D7D70116966D917C911797B6
:100CF000072E000C880B990B0E94F7142BED3FE098
:100D000049E450E40E94561520E030E044E353E407
:100D10000E944B110E9448112B013C01F70164898C
:100D20007589072E000C880B990B0E94F7142BED88
:100D30003FE049E450E40E94561520E030E044E3EF
:100D400053E40E944B110E9421124B015C01D70118
:100D500012960D911C91139718966D917C9119978D
:100D6000072E000C880B990B0E94F7149B01AC0115
:100D7000C301B2010E94561520E030E042E852E47F
:100D80000E94561520E030E048EC52E40E944B11DE
:100D90006DA37EA38FA398A7F70166897789072E95
:100DA000000C880B990B0E94F7149B01AC01C50144
:100DB000B4010E94561520E030E042E852E40E945F
:100DC000561520E030E048EC52E40E944B116B01D4
:100DD0007C0120E030E0A9010E94F1148823A9F0F1
:100DE000A70196015F77C701B6010E944B1120E071
:100DF00030E04EE353E40E9456159B01AC01C7015D
:100E0000B6010E94E4106B017C0146015701E89491
:100E1000B7F820E030E048E453E4C501B4010E9493
:100E20001D121816E4F420E030E0A901C701B60154
:100E30000E94F114882339F0A5019401C701B6017D
:100E40000E944B1104C060E070E080E89FE320E066
:100E500030E04FE753E40E9456156B017C01C70157
:100E6000B6010E94B3116DA77EA78FA798ABA7010B
:100E70009601C701B6010E942712A70196015F776C
:100E800029A73AA74BA75CA7882319F08AE892E024
:100E90001AC02FEF3FEF4FE75FE769A57AA58BA553
:100EA0009CA50E942712811110C02FEF3FEF4FE742
:100EB0005FE769A57AA58BA59CA50E94F114181679
:100EC00024F48EE892E003D56DC02FEF3FEF4FE79B
:100ED0005FE4C701B6010E941D1218161CF482E9D6
:100EE00092E0F1CF2FEF3FEF4FE75FECC701B60184
:100EF0000E94F11487FDF3CF20E030E0A901C70183
:100F0000B6010E94F11487FF06C08DE230D5C701FB
:100F1000B601905802C0C701B6012AE037ED43EA96
:100F20005BE30E94E4102B013C010E94B8114B01CD
:100F30005C010E94F5149B01AC01C301B2010E9447
:100F4000E3102B013C014AE0C501B401D1D48EE28B
:100F50000ED520E030E040E251E4C301B2010E942E
:100F600056154B015C010E94B8112B01612C712CAC
:100F70004AE0C301B201BCD4C301B2010E94F5141E
:100F80009B01AC01C501B4010E94E31020E030E0F8
:100F900040E251E40E9456150E94B81180E090E0B2
:100FA0004AE0A6D486E992E092D420E030E048E41A
:100FB00053E469A57AA58BA59CA50E94F114181687
:100FC00074F120E030E0A9016DA17EA18FA198A568
:100FD0000E94F114882319F12DA13EA14FA158A51B
:100FE0005F776DA17EA18FA198A50E944B1120E093
:100FF00030E04EE353E40E9456159B01AC016DA115
:101000007EA18FA198A50E94E4106DA37EA38FA35B
:1010100098A789E992E05BD486E992E058D46DA163
:101020007EA18FA198A59F770E94B3112B013C014F
:101030005B0120E030E0A901C701B6010E94F11474
:1010400087FF04C0AA24BB24A418B50820E030E020
:10105000A9016DA17EA18FA198A50E94F1144DA5B3
:101060005EA54A0D5B1D2DA53EA52A193B0987FFEC
:1010700005C0D42EC52E622F432F04C0642F452FE8
:10108000D22EC32E862F942F8F3F910519F014F086
:101090008FEF90E07C0181309F4F24F4EE24E394A5
:1010A000FF24FA94B7010F2C000C880B990B0E94B7
:1010B000F7149F7720E030E048E453E40E94F114F5
:1010C00087FF02C0E12CF12C8D2D9C2D8F3F9105C7
:1010D00019F014F08FEF90E06C0181309F4F24F4F1
:1010E000CC24C394DD24DA94B6010D2C000C880BBB
:1010F000990B0E94F7149F7720E030E048E453E416
:101100000E94F11487FF02C0C12CD12CD8015F9638
:10111000FC92EE925E979196DC92CE929097B3E11C
:10112000EB16F10424F0E2E1EE1AF10808C0B6EF84
:10113000EB16BFEFFB0644F4EAE0EE0EF11CD8011B
:101140005F96FC92EE925E97F801868D978D0097E0
:1011500011F4CD2839F016D4D80190968D919C9138
:10116000919710D48D8D9E8D892B59F0E98DFA8D34
:101170008081882331F088E992E0A9D386E992E062
:10118000A6D3CE01499635D5E0960FB6F894DEBFCA
:101190000FBECDBFDF91CF911F910F91FF90EF90C8
:1011A000DF90CF90BF90AF909F908F907F906F9087
:1011B0005F904F903F902F90089584E06BCBAFEFFE
:1011C000CA16D104E104F104C9F0C0F062E17AE783
:1011D00080E090E0A5019401D2D769017A0181E015
:1011E000C81AD108E108F1089FEFC916D104E1043B
:1011F000F10411F008F009CB84E018CB83E016CBA2
:1012000062E17AE780E090E0A5019401B8D7690136
:101210007A01B1E0CB1AD108E108F108EFEFCE1660
:10122000D104E104F104B1F0A8F0D301C2017AE0E5
:10123000B595A795979587957A95D1F76C017D011E
:10124000E1E0CE1AD108E108F108112309F4EDCA52
:1012500087E020CB86E0D6CAFFEFCF16D104E104A9
:10126000F10409F068F684E0CDCA82E013CBEF9276
:10127000FF920F931F93CF93DF931F921F92CDB7CF
:10128000DEB78C018EE893E003D268E972E01816AD
:1012900019062CF5C801B1D4A2D397FD22C08A301B
:1012A0009105F9F089831A82F801E480F580FFEF57
:1012B000EF1AFF0AB701C801FCD3882369F3F801CC
:1012C0002081318184819581BE016F5F7F4F820FC4
:1012D000931F0E94A114F801F582E482DDCFC801BA
:1012E0008CD4C8010F900F90DF91CF911F910F9177
:1012F000FF90EF900895362F90E0FC01EA5DFE4FDD
:101300004491FC01E951FE4F2491FC01EF55FE4F41
:101310009491992309F46AC0442309F454C050E01D
:10132000FA013197E231F10508F04DC08827EE58F7
:10133000FF4F8F4F40C7809180008F7707C080910B
:1013400080008F7D03C080918000877F8093800024
:101350003AC084B58F7702C084B58F7D84BD33C019
:101360008091B0008F7703C08091B0008F7D809313
:10137000B00029C0809190008F7707C080919000C5
:101380008F7D03C080919000877F809390001BC069
:101390008091A0008F7707C08091A0008F7D03C04F
:1013A0008091A000877F8093A0000DC080912001D4
:1013B0008F7707C0809120018F7D03C0809120012D
:1013C000877F80932001E92FF0E0EE0FFF1FE359A4
:1013D000FE4FA591B4918FB7F894EC91311103C0F1
:1013E00020952E2301C02E2B2C938FBF08951F9282
:1013F0000F920FB60F9211242F933F938F939F93C9
:10140000AF93BF938091EB029091EC02A091ED021B
:10141000B091EE023091DF0223E0230F2D3720F44C
:101420000196A11DB11D05C026E8230F0296A11D3E
:10143000B11D2093DF028093EB029093EC02A09306
:10144000ED02B093EE028091E0029091E102A09152
:10145000E202B091E3020196A11DB11D8093E0026A
:101460009093E102A093E202B093E302BF91AF91A7
:101470009F918F913F912F910F900FBE0F901F90D2
:101480001895CF93DF93D62FC42FFC01608341833F
:101490008CE0FED187E0FCD188E0FAD184E0F8D17D
:1014A0001092EF02CED160E087E025DFD23099F1D3
:1014B000C0F4D13009F05BC08091EF02837F80934C
:1014C000EF02BFD180918000816880938000C77057
:1014D000C860C093810010928900109288008BE050
:1014E00043C0D33069F1D43009F041C08091EF029C
:1014F0008E7B8093EF02A5D18091900081688093CC
:101500009000C770C860C09391001092990010922B
:10151000980085E029C08091EF028D7E8093EF02D4
:1015200090D180919000896080939000C770C860CE
:10153000C093910010929D0010929C0083E014C013
:101540008091EF028F758093EF027BD18091A00094
:1015500081688093A000C770C860C093A1001092FA
:10156000A9001092A80086E0DF91CF9191C1DF9190
:10157000CF910895FC01A089B18982E08C93A48564
:10158000B5851C92A685B7858FEC8C93108EA489A7
:10159000B58986E08C93A289B3898C9180618C9304
:1015A000A289B3898C9188608C93A289B3898C912C
:1015B00080688C930288F389E02D80818F7D808301
:1015C00008950895CF92DF92EF92FF920F931F93A9
:1015D000CF93DF936C017A018B01C0E0D0E0CE1590
:1015E000DF0589F0D8016D918D01D601ED91FC9157
:1015F0000190F081E02DC6011995892B11F47E012F
:1016000002C02196ECCFC701DF91CF911F910F91BE
:10161000FF90EF90DF90CF900895FC01A089B189F1
:101620008C91A689B78982FD0FC09C91818D8F5FB7
:101630008F73228D821749F0218DDF01A20FB11D1A
:101640005D969C93818F08958C910895FC01918DF6
:10165000828D981761F0828DDF01A80FB11D5D9614
:101660008C91928D9F5F9F73928F90E008958FEF82
:101670009FEF0895FC01918D828D981731F0828D36
:10168000E80FF11D858D90E008958FEF9FEF08958D
:10169000FC01918D228D892F90E0805C9F4F821BF1
:1016A00091098F73992708958EE893E0F1DF21E087
:1016B000892B09F420E0822F089580EF92E0E8DF83
:1016C00021E0892B09F420E0822F0895FC01848D0C
:1016D000DF01A80FB11DA35ABF4F2C91848D90E05C
:1016E00001968F739927848FA689B7892C93A08937
:1016F000B1898C9180648C93938D848D981306C0EE
:101700000288F389E02D80818F7D80830895EF9298
:10171000FF920F931F93CF93DF93EC0181E0888FAB
:101720009B8D8C8D981305C0E889F989808185FD92
:1017300023C0F62E0B8D10E00F5F1F4F0F73112784
:10174000E02E8C8DE8120BC00FB607FCFACFE889AB
:10175000F989808185FFF5CFCE01B8DFF2CF8B8D7F
:10176000FE01E80FF11DE35AFF4FF0820B8FEA896B
:10177000FB898081806207C0EE89FF896083E889E8
:10178000F98980818064808381E090E0DF91CF914E
:101790001F910F91FF90EF900895CF93DF93EC018D
:1017A000888D8823C1F0EA89FB89808185FD05C089
:1017B000A889B9898C9186FD0EC00FB607FCF5CFBC
:1017C000808185FFF2CFA889B9898C9185FFEDCF03
:1017D000CE017CDFE8CFDF91CF91089580E090E0EB
:1017E000892B19F06ADF811120C080E090E0892BFD
:1017F00019F05ADF81111CC080E090E0892B41F084
:1018000080E090E0892B21F00E940000811113C03C
:1018100080E090E0892BA1F080E090E0892B81F0BE
:101820000E94000081110AC008950E940000DDCFCF
:101830000E940000E1CF0E940000EACF0C9400005B
:101840000895CF93DF9360E08CE055DD60E088E0A1
:1018500052DDC7E0D0E060E084E04DDD8091EF0232
:1018600090E00C2E02C0959587950A94E2F780FFD0
:1018700002C061E001C060E088E03DDD61E084E03D
:101880003ADD219740F761E08CE0DF91CF9133CDD5
:1018900090E0FC01E951FE4F2491FC01EF55FE4F11
:1018A0008491882399F090E0880F991FFC01E957F3
:1018B000FE4FA591B491FC01E359FE4F859194919F
:1018C0008FB7F894EC91E22BEC938FBF08950097BB
:1018D00061F0FC0101900020E9F73197AF01481B4E
:1018E000590BBC0180EF92E06DCE80E090E008954E
:1018F0008F929F92AF92BF920F931F93CF93DF93DC
:10190000CDB7DEB7A1970FB6F894DEBF0FBECDBF3F
:1019100019A2423008F44AE08E010F5D1F4F842E59
:10192000912CA12CB12CA501940107D4E62FB9016B
:10193000CA0101501109EA3014F4E05D01C0E95C0C
:10194000D801EC93232B242B252B69F7C801BFDF8B
:10195000A1960FB6F894DEBF0FBECDBFDF91CF9139
:101960001F910F91BF90AF909F908F900895E0913D
:10197000F002F091F1020190F081E02D682F80EFEC
:1019800092E01994CF92DF92EF92FF92CF93DF9380
:101990006C01990FEE08FF08F7FE10C08DE2E7DF3B
:1019A000EC0166277727CB016C197D098E099F0909
:1019B0004AE09EDF7C01EC0EFD1E05C04AE0C70137
:1019C000B60196DF7C0186E992E081DF8E0D9F1DD6
:1019D000DF91CF91FF90EF90DF90CF9008952FB7D8
:1019E000F8948091EB029091EC02A091ED02B091FD
:1019F000EE022FBF8093960390939703A0939803D2
:101A0000B0939903E0918E03F0918F030680F781E4
:101A1000E02D8EE893E0199597FF26C02FB7F89434
:101A20008091EB029091EC02A091ED02B091EE0258
:101A30002FBF409196035091970360919803709146
:101A40009903841B950BA60BB70B40919203509101
:101A50009303609194037091950384179507A607EB
:101A6000B70780F28FEF9FEF0895FC01808191818D
:101A7000009709F07BC760E070E0CB010895FB019F
:101A800044815581FC01248135812417350770F08C
:101A900080819181009751F0FB0160817181611516
:101AA000710521F055D721E0892B09F020E0822F24
:101AB00008950F931F93CF93DF93EC018881998151
:101AC000009729F02A813B812617370780F48B0184
:101AD0006F5F7F4F31D6009761F0998388831B83B6
:101AE0000A832C813D81232B11F4FC01108281E0BB
:101AF00001C080E0DF91CF911F910F910895EF9287
:101B0000FF920F931F93CF93DF936115710511F42B
:101B100080E021C0FB0101900020E9F73197E61B2E
:101B2000F70BDC0114960D911C911597309791F0ED
:101B30007B01EC010E0F1F1FB801BBDF882341F3AF
:101B4000288139818C819D81B701820F931FF9D63D
:101B50001D830C8381E0DF91CF911F910F91FF9046
:101B6000EF900895EF92FF920F931F93CF93DF931F
:101B7000EC017B018A01BA019CDF28813981811146
:101B80000CC02115310511F0C9013ED5198218820A
:101B90001D821C821B821A8205C01D830C83B70123
:101BA000C901CFD6CE01DF91CF911F910F91FF9048
:101BB000EF900895CF93DF93EC016115710551F01B
:101BC000FB0101900020E9F73197AF01461B570B4D
:101BD000C9DF0BC088819981009709F015D519825A
:101BE00018821D821C821B821A82CE01DF91CF9146
:101BF0000895FC018081918107C5FC01118210824A
:101C000013821282158214826115710549F0FB015D
:101C100001900020E9F73197AF01461B570BA2CF87
:101C200008951F920F920FB60F9211240BB60F92C8
:101C30002F933F934F935F936F937F938F939F93D4
:101C4000AF93BF93EF93FF938091E7029091E802E7
:101C5000A091E902B091EA02892B8A2B8B2B59F1D2
:101C60008091E602E091E402F091E50290818927FB
:101C700080838091E7029091E802A091E902B091FF
:101C8000EA02181619061A061B060CF055C08091B8
:101C9000E7029091E802A091E902B091EA0201976F
:101CA000A109B1098093E7029093E802A093E902A9
:101CB000B093EA0241C080910002ECE6F1E0E491C9
:101CC0009FEF90930002E230C9F050F4EE2399F0B8
:101CD000E13081F590916F009D7F90936F002AC055
:101CE000E43019F1E0F0E53029F5909173009D7F23
:101CF000909373001FC010926E001CC090917000F2
:101D00009D7F9093700091E09093B0009091B1000E
:101D1000987F94609093B1001092B3000BC09091A3
:101D200071009D7F9093710005C0909172009D7F1E
:101D30009093720060E0DFDAFF91EF91BF91AF9175
:101D40009F918F917F916F915F914F913F912F91D3
:101D50000F900BBE0F900FBE0F901F9018951F9203
:101D60000F920FB60F9211240BB60F922F933F9341
:101D70004F935F936F937F938F939F93AF93BF9393
:101D8000EF93FF938EE893E0A1DCFF91EF91BF9179
:101D9000AF919F918F917F916F915F914F913F9103
:101DA0002F910F900BBE0F900FBE0F901F901895A4
:101DB0001F920F920FB60F9211240BB60F922F9312
:101DC0003F934F935F936F937F938F939F93AF93C3
:101DD000BF93EF93FF938EE893E01FDCFF91EF91A9
:101DE000BF91AF919F918F917F916F915F914F9133
:101DF0003F912F910F900BBE0F900FBE0F901F9031
:101E000018951F920F920FB60F9211240BB60F92D6
:101E10002F933F934F935F936F937F938F939F93F2
:101E2000AF93BF93EF93FF9380EF92E04FDCFF916E
:101E3000EF91BF91AF919F918F917F916F915F9142
:101E40004F913F912F910F900BBE0F900FBE0F90AF
:101E50001F9018951F920F920FB60F9211240BB678
:101E60000F922F933F934F935F936F937F938F9333
:101E70009F93AF93BF93EF93FF9380EF92E0CDDBFF
:101E8000FF91EF91BF91AF919F918F917F916F9152
:101E90005F914F913F912F910F900BBE0F900FBE0E
:101EA0000F901F9018950F931F93CF93DF93EEE839
:101EB000F3E01382128248EE53E060E070E0448366
:101EC0005583668377838BE192E0918380832DEC49
:101ED00030E0358724872CEC30E03787268728ECE4
:101EE00030E0318B208B29EC30E0338B228B2AECD5
:101EF00030E0358B248B2EEC30E0378B268B118E27
:101F0000128E138E148EE0EFF2E01382128244835D
:101F10005583668377839183808385EC90E09587F2
:101F2000848784EC90E09787868780EC90E0918BA3
:101F3000808B81EC90E0938B828B82EC90E0958B90
:101F4000848B86EC90E0978B868B118E128E138E8D
:101F5000148E10928D03CBE4D4E00FE312E01983CA
:101F6000088342E061E08DE494E08BDA1D821C82FC
:101F70001F830E8342E064E083E594E082DA1B86EF
:101F80001A8680E1E7E0F2E0A7E5B4E001900D9267
:101F90008A95E1F785E390E09D8F8C8F1F8E1E8ED2
:101FA00019A218A2EBE2F4E0D383C28387E392E0A4
:101FB000918380834BE252E05583448317821682DB
:101FC000118610861386128628E631E0358724872D
:101FD0001786168684E690E0918B808B538B428B1C
:101FE000158A148A178A168A118E108E338F228FC3
:101FF000158E148E978F868F8EE893E0DF91CF91A8
:102000001F910F91B7CA789484B5826084BD84B55E
:10201000816084BD85B5826085BD85B5816085BDE3
:1020200080916E00816080936E001092810080919B
:102030008100826080938100809181008160809323
:102040008100809180008160809380008091B10048
:1020500084608093B1008091B00081608093B00073
:1020600080919100826080939100809191008160C5
:102070008093910080919000816080939000809186
:10208000A10082608093A1008091A1008160809373
:10209000A1008091A00081608093A0008091210127
:1020A00082608093210180912101816080932101D0
:1020B0008091200181608093200180917A0084606A
:1020C00080937A0080917A00826080937A00809178
:1020D0007A00816080937A0080917A008068809392
:1020E0007A001092C10060E070E08BE494E00E94FE
:1020F000C20160E070E081E594E00E94C20180EFDF
:1021000092E038DA85E3C4DB61E085E3F4D88BE262
:1021100094E00E9431026091690470916A048BE43A
:1021200094E00E94C20160916B0470916C0481E59F
:1021300094E00E94C20152DBEACFA1E21A2EAA1B50
:10214000BB1BFD010DC0AA1FBB1FEE1FFF1FA21767
:10215000B307E407F50720F0A21BB30BE40BF50B64
:10216000661F771F881F991F1A9469F760957095ED
:10217000809590959B01AC01BD01CF010895052E7E
:1021800097FB16F400940FD057FD05D0D6DF07FC5F
:1021900002D046F408C050954095309521953F4FA8
:1021A0004F4F5F4F089590958095709561957F4F43
:1021B0008F4F9F4F0895EE0FFF1F881F8BBF079013
:1021C000F691E02D19945058BB27AA270ED0E8C4E9
:1021D000D9D430F0DED420F031F49F3F11F41EF456
:1021E000CEC40EF4E095E7FBC4C4E92FEAD480F333
:1021F000BA17620773078407950718F071F49EF504
:1022000002C50EF4E0950B2EBA2FA02D0B01B901DB
:1022100090010C01CA01A0011124FF27591B99F05C
:10222000593F50F4503E68F11A16F040A22F232F68
:10223000342F4427585FF3CF469537952795A795B8
:10224000F0405395C9F77EF41F16BA0B620B730B5F
:10225000840BBAF09150A1F0FF0FBB1F661F771FD0
:10226000881FC2F70EC0BA0F621F731F841F48F485
:10227000879577956795B795F7959E3F08F0B3CF0B
:102280009395880F08F09927EE0F979587950895F5
:102290009CD0E395C1C00CD083C47BD440F072D4F1
:1022A00030F021F45F3F19F064C45111ADC467C42C
:1022B00088D498F39923C9F35523B1F3951B550B93
:1022C000BB27AA2762177307840738F09F5F5F4F09
:1022D000220F331F441FAA1FA9F333D00E2E3AF04A
:1022E000E0E830D091505040E695001CCAF729D064
:1022F000FE2F27D0660F771F881FBB1F26173707B3
:102300004807AB07B0E809F0BB0B802DBF01FF27E2
:1023100093585F4F2AF09E3F510568F02AC474C459
:102320005F3FECF3983EDCF3869577956795B7951C
:10233000F7959F5FC9F7880F911D9695879597F937
:102340000895E1E0660F771F881FBB1F62177307B0
:102350008407BA0720F0621B730B840BBA0BEE1FC5
:1023600088F7E095089504D06894B1114DC408959C
:1023700030D488F09F5790F0B92F9927B751A0F02B
:10238000D1F0660F771F881F991F1AF0BA95C9F709
:1023900012C0B13081F037D4B1E0089534C4672F52
:1023A000782F8827B85F39F0B93FCCF386957795B9
:1023B0006795B395D9F73EF49095809570956195A2
:1023C0007F4F8F4F9F4F0895DAC303D4E8F3E8940B
:1023D000E0E0BB279F57F0F02AED3FE049EC06C054
:1023E000EE0FBB0F661F771F881F28F0B23A6207F7
:1023F0007307840728F0B25A620B730B840BE395C2
:102400009A9572F7803830F49A95BB0F661F771F44
:10241000881FD2F7904821C0EF93E0FF06C0A2EAE0
:102420002AED3FE049EC5FEBE0DEBAD30F90039476
:1024300001FC9058E8E0F1E01CC014D308F48FEFE1
:1024400008959F93C2DF0F9007FCEE5FE5CF0AD39C
:10245000880B990B08959F3F31F0915020F4879598
:1024600077956795B795880F911D9695879597F9FC
:1024700008959F938F937F936F93FF93EF939B01A7
:10248000AC0114D3EF91FF9105D02F913F914F9163
:102490005F910CC3DF93CF931F930F93FF92EF9243
:1024A000DF927B018C01689405C0DA2EEF010AD31C
:1024B000FE01E894A5912591359145915591AEF392
:1024C000EF0193DEFE019701A801DA9479F7DF901E
:1024D000EF90FF900F911F91CF91DF910895CF93CF
:1024E000DF938230910510F482E090E0E0916F0478
:1024F000F091700420E030E0C0E0D0E0309711F1BE
:102500004081518148175907C0F04817590761F4B5
:1025100082819381209719F09B838A832BC09093AB
:10252000700480936F0426C02115310519F04217FD
:10253000530718F49A01BE01DF01EF010280F38115
:10254000E02DDCCF2115310509F1281B390B243092
:10255000310590F412968D919C9113976115710538
:1025600021F0FB019383828304C0909370048093D5
:102570006F04FD01329644C0FD01E20FF31F819309
:102580009193225031092D933C933AC020916D04D0
:1025900030916E04232B41F4209103023091040208
:1025A00030936E0420936D04209101023091020259
:1025B0002115310541F42DB73EB7409105025091E8
:1025C0000602241B350BE0916D04F0916E04E217B6
:1025D000F307A0F42E1B3F0B2817390778F0AC0146
:1025E0004E5F5F4F2417350748F04E0F5F1F509323
:1025F0006E0440936D048193919302C0E0E0F0E09B
:10260000CF01DF91CF9108950F931F93CF93DF9365
:10261000009709F48CC0FC0132971382128200915A
:102620006F04109170040115110581F4208131812E
:10263000820F931F20916D0430916E042817390783
:1026400079F5F0936E04E0936D0471C0D80140E019
:1026500050E0AE17BF0750F412962D913C9113979E
:10266000AD012115310509F1D901F3CF9D01DA0141
:102670003383228360817181860F971F82179307AE
:1026800069F4EC0128813981260F371F2E5F3F4FF7
:10269000318320838A819B8193838283452B29F414
:1026A000F0937004E0936F0442C01396FC93EE9392
:1026B0001297ED01499159919E01240F351FE217A0
:1026C000F30771F480819181840F951F0296119612
:1026D0009C938E938281938113969C938E931297F1
:1026E000E0E0F0E0D80112968D919C91139700974D
:1026F00019F0F8018C01F6CF8D919C9198012E5F15
:102700003F4F820F931F20916D0430916E04281764
:10271000390769F4309729F41092700410926F040D
:1027200002C01382128210936E0400936D04DF9135
:10273000CF911F910F9108956F927F928F929F92E8
:10274000AF92BF92CF92DF92EF92FF920F931F93BF
:10275000CF93DF93EC01009781F4CB01DF91CF9110
:102760001F910F91FF90EF90DF90CF90BF90AF90AF
:102770009F908F907F906F90B2CEFC01E60FF71F75
:102780009C0122503109E217F30708F4A8C0D901CF
:102790000D911C91119706171707A8F00530110528
:1027A00008F49BC0C80104978617970708F495C0E2
:1027B00002501109061B170B019311936D937C9323
:1027C000CF0122DF8AC05B01A01AB10A4C01800E42
:1027D000911EA0916F04B091700440E050E0E12C94
:1027E000F12C109709F44AC0A815B905D1F56D90E0
:1027F0007C901197630182E0C80ED11CCA14DB04DF
:1028000080F1A3014A195B096A0182E0C80ED11C5C
:102810001296BC9012971396AC91B5E0CB16D104EA
:1028200040F0B282A38351834083D9016D937C939E
:102830000AC00E5F1F4FC301800F911FF9019183E2
:102840008083EB2DFA2FE114F10431F0D7011396B8
:10285000FC93EE93129741C0F0937004E0936F04E1
:102860003CC08D919C9111974817590708F4AC0111
:102870007D0112960D90BC91A02DB3CF80916D0477
:1028800090916E0488159905E1F446175707C8F42E
:102890008091010290910202009741F48DB79EB79A
:1028A0004091050250910602841B950BE817F90729
:1028B000B0F4F0936E04E0936D04F90171836083CA
:1028C0000CC0CB010CDE7C01009749F0A801BE01D1
:1028D0001BD0CE0199DEC70104C0CE0102C080E04A
:1028E00090E0DF91CF911F910F91FF90EF90DF90DB
:1028F000CF90BF90AF909F908F907F906F900895F2
:1029000081E090E0F89495C1FB01DC0102C00190E8
:102910000D9241505040D8F70895FC0181918617DF
:1029200021F08823D9F7992708953197CF01089589
:10293000FB01DC018D91019080190110D9F3990BF5
:102940000895FB01DC0101900D920020E1F708954C
:10295000FB01DC014150504030F08D910190801915
:1029600019F40020B9F7881B990B08951F93FC01F7
:1029700099278827BC01E89411911032E9F31930A6
:1029800010F01E30C8F31B3249F01D3241F4689438
:1029900005C012D0610F711D811D911D1191105341
:1029A0001A30B8F33EF490958095709561957F4FFD
:1029B0008F4F9F4F1F910895592F482F372F262F44
:1029C000660F771F881F991F660F771F881F991F33
:1029D000620F731F841F951F660F771F881F991F33
:1029E000089540D008F481E00895E89409C097FB69
:1029F0003EF490958095709561957F4F8F4F9F4FD6
:102A00009923A9F0F92F96E9BB279395F695879519
:102A100077956795B795F111F8CFFAF4BB0F11F4DC
:102A200060FF1BC06F5F7F4F8F4F9F4F16C0882383
:102A300011F096E911C0772321F09EE8872F762FB9
:102A400005C0662371F096E8862F70E060E02AF0FA
:102A50009A95660F771F881FDAF7880F96958795E6
:102A600097F90895990F0008550FAA0BE0E8FEEFBB
:102A700016161706E807F907C0F012161306E40742
:102A8000F50798F0621B730B840B950B39F40A263B
:102A900061F0232B242B252B21F408950A2609F419
:102AA000A140A6958FEF811D811D08950BD078C0A0
:102AB00069D028F06ED018F0952309F05AC05FC095
:102AC0001124A2C07ED0A0F3959FD1F3950F50E0C2
:102AD000551F629FF001729FBB27F00DB11D639FD0
:102AE000AA27F00DB11DAA1F649F6627B00DA11D76
:102AF000661F829F2227B00DA11D621F739FB00D1C
:102B0000A11D621F839FA00D611D221F749F33278B
:102B1000A00D611D231F849F600D211D822F762F24
:102B20006A2F11249F5750408AF0E1F088234AF021
:102B3000EE0FFF1FBB1F661F771F881F915050406D
:102B4000A9F79E3F510570F014C05EC05F3FECF3E3
:102B5000983EDCF3869577956795B795F795E79559
:102B60009F5FC1F7FE2B880F911D9695879597F96A
:102B7000089597F99F6780E870E060E008959FEFFF
:102B800080EC089500240A94161617061806090604
:102B9000089500240A9412161306140605060895D3
:102BA000092E0394000C11F4882352F0BB0F40F45B
:102BB000BF2B11F460FF04C06F5F7F4F8F4F9F4F9B
:102BC000089557FD9058440F551F59F05F3F71F01D
:102BD0004795880F97FB991F61F09F3F79F0879584
:102BE0000895121613061406551FF2CF4695F1DF0D
:102BF00008C0161617061806991FF1CF869571059D
:102C0000610508940895E894BB2766277727CB01D0
:102C100097F90895A29FB001B39FC001A39F700DC3
:102C2000811D1124911DB29F700D811D1124911DD4
:062C30000895F894FFCFA7
:102C3600FF0000710480000B024B029302BA0210DF
:102C4600037003DC03170400000000870BE20A4848
:102C56000B260B3A0BCD0B00000000AC019C019833
:102C6600019401000000003709310200000000C293
:102C760001BC01415A45455F48414E445348414BCA
:102C86004500416E616C6F6700416E616C6F67480D
:102C960000416E616C6F6756004C65667420416E2C
:102CA600616C6F673A2000203B20005269676874A8
:102CB60020416E616C6F673A20006E616E00696E2E
:102CC60066006F7666000D0A00416464696E6720CF
:102CD600486F72697A6F6E74616C205370656564B3
:0C2CE60020436F7272656374696F6E00AA
:00000001FF
